{
  "contractName": "createERC20_v2",
  "abi": [
    {
      "constant": true,
      "inputs": [],
      "name": "totalSupply",
      "outputs": [
        {
          "name": "",
          "type": "uint256"
        }
      ],
      "payable": false,
      "stateMutability": "view",
      "type": "function"
    },
    {
      "constant": true,
      "inputs": [],
      "name": "tokenName",
      "outputs": [
        {
          "name": "",
          "type": "string"
        }
      ],
      "payable": false,
      "stateMutability": "view",
      "type": "function"
    },
    {
      "constant": true,
      "inputs": [],
      "name": "icoOwner",
      "outputs": [
        {
          "name": "",
          "type": "address"
        }
      ],
      "payable": false,
      "stateMutability": "view",
      "type": "function"
    },
    {
      "constant": true,
      "inputs": [],
      "name": "buyPrice",
      "outputs": [
        {
          "name": "",
          "type": "uint256"
        }
      ],
      "payable": false,
      "stateMutability": "view",
      "type": "function"
    },
    {
      "constant": true,
      "inputs": [],
      "name": "symbol",
      "outputs": [
        {
          "name": "",
          "type": "string"
        }
      ],
      "payable": false,
      "stateMutability": "view",
      "type": "function"
    },
    {
      "constant": true,
      "inputs": [],
      "name": "actualSupply",
      "outputs": [
        {
          "name": "",
          "type": "uint256"
        }
      ],
      "payable": false,
      "stateMutability": "view",
      "type": "function"
    },
    {
      "inputs": [],
      "payable": false,
      "stateMutability": "nonpayable",
      "type": "constructor"
    },
    {
      "anonymous": false,
      "inputs": [
        {
          "indexed": false,
          "name": "name",
          "type": "string"
        },
        {
          "indexed": false,
          "name": "symbol",
          "type": "string"
        },
        {
          "indexed": false,
          "name": "decimals",
          "type": "uint256"
        },
        {
          "indexed": false,
          "name": "totalSupply",
          "type": "uint256"
        },
        {
          "indexed": false,
          "name": "princeInEther",
          "type": "uint256"
        },
        {
          "indexed": false,
          "name": "icoOwner",
          "type": "address"
        }
      ],
      "name": "CreateToken",
      "type": "event"
    },
    {
      "anonymous": false,
      "inputs": [
        {
          "indexed": true,
          "name": "from",
          "type": "address"
        },
        {
          "indexed": true,
          "name": "to",
          "type": "address"
        },
        {
          "indexed": false,
          "name": "value",
          "type": "uint256"
        }
      ],
      "name": "Transfer",
      "type": "event"
    },
    {
      "anonymous": false,
      "inputs": [
        {
          "indexed": true,
          "name": "from",
          "type": "address"
        },
        {
          "indexed": false,
          "name": "value",
          "type": "uint256"
        }
      ],
      "name": "Burn",
      "type": "event"
    },
    {
      "constant": false,
      "inputs": [
        {
          "name": "tName",
          "type": "string"
        },
        {
          "name": "tSymbol",
          "type": "string"
        },
        {
          "name": "nDecimals",
          "type": "uint256"
        },
        {
          "name": "initialSup",
          "type": "uint256"
        },
        {
          "name": "p_buy",
          "type": "uint256"
        },
        {
          "name": "owner",
          "type": "address"
        }
      ],
      "name": "setERC2Params",
      "outputs": [],
      "payable": false,
      "stateMutability": "nonpayable",
      "type": "function"
    },
    {
      "constant": true,
      "inputs": [],
      "name": "getTotalSupply",
      "outputs": [
        {
          "name": "",
          "type": "uint256"
        }
      ],
      "payable": false,
      "stateMutability": "view",
      "type": "function"
    },
    {
      "constant": true,
      "inputs": [
        {
          "name": "tokenOwner",
          "type": "address"
        }
      ],
      "name": "balanceOf",
      "outputs": [
        {
          "name": "balance",
          "type": "uint256"
        }
      ],
      "payable": false,
      "stateMutability": "view",
      "type": "function"
    },
    {
      "constant": false,
      "inputs": [
        {
          "name": "_to",
          "type": "address"
        },
        {
          "name": "_value",
          "type": "uint256"
        }
      ],
      "name": "transfer",
      "outputs": [],
      "payable": false,
      "stateMutability": "nonpayable",
      "type": "function"
    },
    {
      "constant": false,
      "inputs": [
        {
          "name": "newBuyPrice",
          "type": "uint256"
        }
      ],
      "name": "setPrices",
      "outputs": [],
      "payable": false,
      "stateMutability": "nonpayable",
      "type": "function"
    },
    {
      "constant": false,
      "inputs": [],
      "name": "buy",
      "outputs": [],
      "payable": true,
      "stateMutability": "payable",
      "type": "function"
    },
    {
      "constant": false,
      "inputs": [
        {
          "name": "amount",
          "type": "uint256"
        }
      ],
      "name": "extractInvestment",
      "outputs": [],
      "payable": true,
      "stateMutability": "payable",
      "type": "function"
    }
  ],
  "bytecode": "0x608060405234801561001057600080fd5b5033600560006101000a81548173ffffffffffffffffffffffffffffffffffffffff021916908373ffffffffffffffffffffffffffffffffffffffff160217905550610ec6806100616000396000f3006080604052600436106100c5576000357c0100000000000000000000000000000000000000000000000000000000900463ffffffff16806318160ddd146100ca57806353f57bbd146100f55780636c02a931146101e25780636c4bf16b1461027257806370a08231146102c95780638620410b1461032057806395d89b411461034b57806396de0305146103db578063a3201daa146103fb578063a6f2ae3a14610428578063a9059cbb14610432578063c4e41b221461047f578063d9c905b8146104aa575b600080fd5b3480156100d657600080fd5b506100df6104d5565b6040518082815260200191505060405180910390f35b34801561010157600080fd5b506101e0600480360381019080803590602001908201803590602001908080601f0160208091040260200160405190810160405280939291908181526020018383808284378201915050505050509192919290803590602001908201803590602001908080601f0160208091040260200160405190810160405280939291908181526020018383808284378201915050505050509192919290803590602001909291908035906020019092919080359060200190929190803573ffffffffffffffffffffffffffffffffffffffff1690602001909291905050506104db565b005b3480156101ee57600080fd5b506101f7610746565b6040518080602001828103825283818151815260200191508051906020019080838360005b8381101561023757808201518184015260208101905061021c565b50505050905090810190601f1680156102645780820380516001836020036101000a031916815260200191505b509250505060405180910390f35b34801561027e57600080fd5b506102876107e4565b604051808273ffffffffffffffffffffffffffffffffffffffff1673ffffffffffffffffffffffffffffffffffffffff16815260200191505060405180910390f35b3480156102d557600080fd5b5061030a600480360381019080803573ffffffffffffffffffffffffffffffffffffffff16906020019092919050505061080a565b6040518082815260200191505060405180910390f35b34801561032c57600080fd5b50610335610853565b6040518082815260200191505060405180910390f35b34801561035757600080fd5b50610360610859565b6040518080602001828103825283818151815260200191508051906020019080838360005b838110156103a0578082015181840152602081019050610385565b50505050905090810190601f1680156103cd5780820380516001836020036101000a031916815260200191505b509250505060405180910390f35b6103f9600480360381019080803590602001909291905050506108f7565b005b34801561040757600080fd5b50610426600480360381019080803590602001909291905050506109bf565b005b610430610a25565b005b34801561043e57600080fd5b5061047d600480360381019080803573ffffffffffffffffffffffffffffffffffffffff16906020019092919080359060200190929190505050610aaa565b005b34801561048b57600080fd5b50610494610ab9565b6040518082815260200191505060405180910390f35b3480156104b657600080fd5b506104bf610ac3565b6040518082815260200191505060405180910390f35b60025481565b600560009054906101000a900473ffffffffffffffffffffffffffffffffffffffff1673ffffffffffffffffffffffffffffffffffffffff163373ffffffffffffffffffffffffffffffffffffffff1614151561053757600080fd5b856000908051906020019061054d929190610df5565b508460019080519060200190610564929190610df5565b5083600a8402026002819055508160038190555060025460048190555060025460066000600560009054906101000a900473ffffffffffffffffffffffffffffffffffffffff1673ffffffffffffffffffffffffffffffffffffffff1673ffffffffffffffffffffffffffffffffffffffff168152602001908152602001600020819055507f6bdfefcc03e17927523234b1a3d478c2aaa4f09a62253dbe6d4397144473cb008686868686866040518080602001806020018781526020018681526020018581526020018473ffffffffffffffffffffffffffffffffffffffff1673ffffffffffffffffffffffffffffffffffffffff168152602001838103835289818151815260200191508051906020019080838360005b8381101561069857808201518184015260208101905061067d565b50505050905090810190601f1680156106c55780820380516001836020036101000a031916815260200191505b50838103825288818151815260200191508051906020019080838360005b838110156106fe5780820151818401526020810190506106e3565b50505050905090810190601f16801561072b5780820380516001836020036101000a031916815260200191505b509850505050505050505060405180910390a1505050505050565b60008054600181600116156101000203166002900480601f0160208091040260200160405190810160405280929190818152602001828054600181600116156101000203166002900480156107dc5780601f106107b1576101008083540402835291602001916107dc565b820191906000526020600020905b8154815290600101906020018083116107bf57829003601f168201915b505050505081565b600560009054906101000a900473ffffffffffffffffffffffffffffffffffffffff1681565b6000600660008373ffffffffffffffffffffffffffffffffffffffff1673ffffffffffffffffffffffffffffffffffffffff168152602001908152602001600020549050919050565b60035481565b60018054600181600116156101000203166002900480601f0160208091040260200160405190810160405280929190818152602001828054600181600116156101000203166002900480156108ef5780601f106108c4576101008083540402835291602001916108ef565b820191906000526020600020905b8154815290600101906020018083116108d257829003601f168201915b505050505081565b600560009054906101000a900473ffffffffffffffffffffffffffffffffffffffff1673ffffffffffffffffffffffffffffffffffffffff163373ffffffffffffffffffffffffffffffffffffffff1614151561095357600080fd5b600560009054906101000a900473ffffffffffffffffffffffffffffffffffffffff1673ffffffffffffffffffffffffffffffffffffffff166108fc829081150290604051600060405180830381858888f193505050501580156109bb573d6000803e3d6000fd5b5050565b600560009054906101000a900473ffffffffffffffffffffffffffffffffffffffff1673ffffffffffffffffffffffffffffffffffffffff163373ffffffffffffffffffffffffffffffffffffffff16141515610a1b57600080fd5b8060038190555050565b600060035434811515610a3457fe5b049050610a42303383610ac9565b3373ffffffffffffffffffffffffffffffffffffffff163073ffffffffffffffffffffffffffffffffffffffff167fddf252ad1be2c89b69c2b068fc378daa952ba7f163c4a11628f55a4df523b3ef836040518082815260200191505060405180910390a350565b610ab5338383610ac9565b5050565b6000600254905090565b60045481565b60008073ffffffffffffffffffffffffffffffffffffffff168373ffffffffffffffffffffffffffffffffffffffff1614151515610b0657600080fd5b81600660008673ffffffffffffffffffffffffffffffffffffffff1673ffffffffffffffffffffffffffffffffffffffff1681526020019081526020016000205410151515610b5457600080fd5b600660008473ffffffffffffffffffffffffffffffffffffffff1673ffffffffffffffffffffffffffffffffffffffff1681526020019081526020016000205482600660008673ffffffffffffffffffffffffffffffffffffffff1673ffffffffffffffffffffffffffffffffffffffff1681526020019081526020016000205401111515610be257600080fd5b600660008473ffffffffffffffffffffffffffffffffffffffff1673ffffffffffffffffffffffffffffffffffffffff16815260200190815260200160002054600660008673ffffffffffffffffffffffffffffffffffffffff1673ffffffffffffffffffffffffffffffffffffffff1681526020019081526020016000205401905081600660008673ffffffffffffffffffffffffffffffffffffffff1673ffffffffffffffffffffffffffffffffffffffff1681526020019081526020016000206000828254039250508190555081600660008573ffffffffffffffffffffffffffffffffffffffff1673ffffffffffffffffffffffffffffffffffffffff168152602001908152602001600020600082825401925050819055508273ffffffffffffffffffffffffffffffffffffffff168473ffffffffffffffffffffffffffffffffffffffff167fddf252ad1be2c89b69c2b068fc378daa952ba7f163c4a11628f55a4df523b3ef846040518082815260200191505060405180910390a380600660008573ffffffffffffffffffffffffffffffffffffffff1673ffffffffffffffffffffffffffffffffffffffff16815260200190815260200160002054600660008773ffffffffffffffffffffffffffffffffffffffff1673ffffffffffffffffffffffffffffffffffffffff1681526020019081526020016000205401141515610def57fe5b50505050565b828054600181600116156101000203166002900490600052602060002090601f016020900481019282601f10610e3657805160ff1916838001178555610e64565b82800160010185558215610e64579182015b82811115610e63578251825591602001919060010190610e48565b5b509050610e719190610e75565b5090565b610e9791905b80821115610e93576000816000905550600101610e7b565b5090565b905600a165627a7a72305820cd092cbba7f7ec1f86f9492aa29aa2b29161223a1d2f923830cf61f9c3f2e2990029",
  "source": "pragma solidity ^0.4.4;\n\ncontract createERC20_v2 {\n    \n     // MODIFIER \n     modifier onlyOwner {\n         require (msg.sender == icoOwner);\n         _;\n     }\n   \t string public tokenName; // nombre de nuestra criptomoneda\n\t string public symbol;// le designamos un simbolo\n\t //uint public decimals;  // le asignamos el numero de decimales - ether usa 18 decimales\n\t uint256 public totalSupply; // total supply of our token \n\n\t uint256 public buyPrice;\n\t //uint256 public sellPrice;\n\t \n\t uint256 public actualSupply;\n\t \n\t address public  icoOwner;\n\t \n\t // keep track of how mucha tokens everybody has\n\t mapping(address => uint256) balances; // the addres is the key of the dic balances\n\t //mapping (address => mapping (address => uint256)) public allowance;\n\t \n\t \n\t // EVENTOS\n\t event CreateToken (string name, string symbol, uint decimals, uint256 totalSupply, uint256 princeInEther, address icoOwner);\n\t event Transfer(address indexed from, address indexed to, uint256 value); // notificamos que se ha realizado una transaccion\n     event Burn(address indexed from, uint256 value); // notificamos de la destruccion de tokens\n\t\n\t/*\n\t* the constructor function of our Token smart contract\n\t*/\n\t//function createERC20_v2() public {\n\tconstructor() public {\n\t    icoOwner = msg.sender;\n\t}\n\t\n\t/*\n\t* Function to set token parameters\n\t*/\n\t function setERC2Params (string tName, string  tSymbol, uint nDecimals, uint256  initialSup, uint256 p_buy, address owner) public onlyOwner {\n\t     \n\t     tokenName = tName;\n\t     symbol = tSymbol;\n\t     // totalSupply = totalSup;// we create totalSup=100 tokens w/ nDecimals=2 decimals\n\t     totalSupply = initialSup * 10 * uint256(nDecimals); // \n\t     buyPrice = p_buy;\n\t    // sellPrice = p_sell;\n\t     actualSupply = totalSupply;\n\t     \n\t     //icoOwner = owner;\n\t     \n\t     balances[icoOwner] = totalSupply; // es lo mismo poner tokenOwner que msgSender por como está progrmado???\n\t     \n\t     emit CreateToken(tName, tSymbol, nDecimals, initialSup, p_buy, owner);\n\t }\n\t \n\t /*\n\t * Getter function for the totalSupply variable\n\t */\n\t function getTotalSupply() public constant returns (uint){\n\t     return totalSupply;\n\t }\n\t \n\t /*\n\t * Gets the balance of the specified address\n\t */\n\t function balanceOf(address tokenOwner) public constant returns (uint balance){\n\t     return balances[tokenOwner];\n\t }\n\t \n\t /*\n\t * Internal transfer function, it can only be called by this contract\n\t */\n\t function _transfer(address _from, address _to, uint _value) internal {\n        \n        require(_to != address(0)); // Prevent transfer to 0x0 address.\n        require(balances[_from] >= _value);  // Check if the sender has enough\n        require(balances[_to] + _value > balances[_to]); // Check for overflows ?????\n        uint previousBalances = balances[_from] + balances[_to]; // Save this for an assertion in the future\n        \n        balances[_from] -= _value; // Subtract from the sender\n        balances[_to] += _value;// Add the same to the recipient\n        \n        emit Transfer(_from, _to, _value); // emit event\n        \n        // Asserts are used to use static analysis to find bugs in your code. They should never fail\n        assert(balances[_from] + balances[_to] == previousBalances);\n    }\n    \n    /* \n    * Externalfunction for transfering\n    * Sen (_value) tokens to (_to) account from your account\n    *\n    * @param _to Address of recipient account\n    * @param _value Amount of tokens to send    *\n    */\n    function transfer( address _to, uint256 _value) public {\n        _transfer(msg.sender, _to, _value);\n    }\n    \n    \n    /*\n    * Funcion que actualiza el precio del token creado \n    * solo el creador de la ICO puede actualizar este valor \n    */\n    function setPrices (uint256 newBuyPrice) onlyOwner public {\n        // sel tamb iria aqui\n        buyPrice = newBuyPrice;\n    }\n    \n    /*\n    *  buy tokens from contract by sending ether \n    */\n    function buy() payable public {\n        uint amount = msg.value / buyPrice; // calculates the amoun\n        _transfer (this, msg.sender, amount);\n        \n        emit Transfer(this, msg.sender, amount); // execute an event reflecting the change\n    }\n    \n    /*\n    * Function to extract the ehters keep in the contract\n    * only the ICO owner can use it\n    * ¿ESTA BIIIEN?\n    */\n    function extractInvestment(uint amount) payable onlyOwner public {\n        // COMO ????? \n        icoOwner.transfer(amount); // ??? \n    }\n\t\n}",
  "sourcePath": "/home/sofiavidal/Escritorio/ICO_Plataform/TFG-ICO-Plataform/contracts/createERC20_v2.sol",
  "compiler": {
    "name": "solc",
    "version": "0.4.24+commit.e67f0147.Emscripten.clang"
  },
  "schemaVersion": "2.0.0",
  "updatedAt": "2018-06-13T17:12:22.896Z"
}