{
  "contractName": "createERC20_v2",
  "abi": [
    {
      "constant": true,
      "inputs": [],
      "name": "totalSupply",
      "outputs": [
        {
          "name": "",
          "type": "uint256"
        }
      ],
      "payable": false,
      "stateMutability": "view",
      "type": "function"
    },
    {
      "constant": true,
      "inputs": [],
      "name": "decimals",
      "outputs": [
        {
          "name": "",
          "type": "uint256"
        }
      ],
      "payable": false,
      "stateMutability": "view",
      "type": "function"
    },
    {
      "constant": true,
      "inputs": [],
      "name": "tokenName",
      "outputs": [
        {
          "name": "",
          "type": "string"
        }
      ],
      "payable": false,
      "stateMutability": "view",
      "type": "function"
    },
    {
      "constant": true,
      "inputs": [],
      "name": "icoOwner",
      "outputs": [
        {
          "name": "",
          "type": "address"
        }
      ],
      "payable": false,
      "stateMutability": "view",
      "type": "function"
    },
    {
      "constant": true,
      "inputs": [],
      "name": "buyPrice",
      "outputs": [
        {
          "name": "",
          "type": "uint256"
        }
      ],
      "payable": false,
      "stateMutability": "view",
      "type": "function"
    },
    {
      "constant": true,
      "inputs": [],
      "name": "symbol",
      "outputs": [
        {
          "name": "",
          "type": "string"
        }
      ],
      "payable": false,
      "stateMutability": "view",
      "type": "function"
    },
    {
      "constant": true,
      "inputs": [],
      "name": "actualSupply",
      "outputs": [
        {
          "name": "",
          "type": "uint256"
        }
      ],
      "payable": false,
      "stateMutability": "view",
      "type": "function"
    },
    {
      "inputs": [],
      "payable": false,
      "stateMutability": "nonpayable",
      "type": "constructor"
    },
    {
      "anonymous": false,
      "inputs": [
        {
          "indexed": true,
          "name": "from",
          "type": "address"
        },
        {
          "indexed": true,
          "name": "to",
          "type": "address"
        },
        {
          "indexed": false,
          "name": "value",
          "type": "uint256"
        },
        {
          "indexed": false,
          "name": "aSupply",
          "type": "uint256"
        }
      ],
      "name": "Transfer",
      "type": "event"
    },
    {
      "constant": false,
      "inputs": [
        {
          "name": "tName",
          "type": "string"
        },
        {
          "name": "tSymbol",
          "type": "string"
        },
        {
          "name": "nDecimals",
          "type": "uint256"
        },
        {
          "name": "initialSup",
          "type": "uint256"
        },
        {
          "name": "p_buy",
          "type": "uint256"
        },
        {
          "name": "owner",
          "type": "address"
        }
      ],
      "name": "setERC2Params",
      "outputs": [],
      "payable": false,
      "stateMutability": "nonpayable",
      "type": "function"
    },
    {
      "constant": true,
      "inputs": [],
      "name": "getTotalSupply",
      "outputs": [
        {
          "name": "",
          "type": "uint256"
        }
      ],
      "payable": false,
      "stateMutability": "view",
      "type": "function"
    },
    {
      "constant": true,
      "inputs": [
        {
          "name": "tokenOwner",
          "type": "address"
        }
      ],
      "name": "balanceOf",
      "outputs": [
        {
          "name": "balance",
          "type": "uint256"
        }
      ],
      "payable": false,
      "stateMutability": "view",
      "type": "function"
    },
    {
      "constant": false,
      "inputs": [
        {
          "name": "_to",
          "type": "address"
        },
        {
          "name": "_value",
          "type": "uint256"
        }
      ],
      "name": "transfer",
      "outputs": [],
      "payable": false,
      "stateMutability": "nonpayable",
      "type": "function"
    },
    {
      "constant": false,
      "inputs": [
        {
          "name": "newBuyPrice",
          "type": "uint256"
        }
      ],
      "name": "setPrices",
      "outputs": [],
      "payable": false,
      "stateMutability": "nonpayable",
      "type": "function"
    },
    {
      "constant": false,
      "inputs": [],
      "name": "buy",
      "outputs": [],
      "payable": true,
      "stateMutability": "payable",
      "type": "function"
    },
    {
      "constant": false,
      "inputs": [
        {
          "name": "amount",
          "type": "uint256"
        }
      ],
      "name": "extractInvestment",
      "outputs": [],
      "payable": true,
      "stateMutability": "payable",
      "type": "function"
    }
  ],
  "bytecode": "0x608060405234801561001057600080fd5b5033600660006101000a81548173ffffffffffffffffffffffffffffffffffffffff021916908373ffffffffffffffffffffffffffffffffffffffff160217905550610dd8806100616000396000f3006080604052600436106100d0576000357c0100000000000000000000000000000000000000000000000000000000900463ffffffff16806318160ddd146100d5578063313ce5671461010057806353f57bbd1461012b5780636c02a931146102185780636c4bf16b146102a857806370a08231146102ff5780638620410b1461035657806395d89b411461038157806396de030514610411578063a3201daa14610431578063a6f2ae3a1461045e578063a9059cbb14610468578063c4e41b22146104b5578063d9c905b8146104e0575b600080fd5b3480156100e157600080fd5b506100ea61050b565b6040518082815260200191505060405180910390f35b34801561010c57600080fd5b50610115610511565b6040518082815260200191505060405180910390f35b34801561013757600080fd5b50610216600480360381019080803590602001908201803590602001908080601f0160208091040260200160405190810160405280939291908181526020018383808284378201915050505050509192919290803590602001908201803590602001908080601f0160208091040260200160405190810160405280939291908181526020018383808284378201915050505050509192919290803590602001909291908035906020019092919080359060200190929190803573ffffffffffffffffffffffffffffffffffffffff169060200190929190505050610517565b005b34801561022457600080fd5b5061022d610634565b6040518080602001828103825283818151815260200191508051906020019080838360005b8381101561026d578082015181840152602081019050610252565b50505050905090810190601f16801561029a5780820380516001836020036101000a031916815260200191505b509250505060405180910390f35b3480156102b457600080fd5b506102bd6106d2565b604051808273ffffffffffffffffffffffffffffffffffffffff1673ffffffffffffffffffffffffffffffffffffffff16815260200191505060405180910390f35b34801561030b57600080fd5b50610340600480360381019080803573ffffffffffffffffffffffffffffffffffffffff1690602001909291905050506106f8565b6040518082815260200191505060405180910390f35b34801561036257600080fd5b5061036b610741565b6040518082815260200191505060405180910390f35b34801561038d57600080fd5b50610396610747565b6040518080602001828103825283818151815260200191508051906020019080838360005b838110156103d65780820151818401526020810190506103bb565b50505050905090810190601f1680156104035780820380516001836020036101000a031916815260200191505b509250505060405180910390f35b61042f600480360381019080803590602001909291905050506107e5565b005b34801561043d57600080fd5b5061045c600480360381019080803590602001909291905050506108ad565b005b610466610913565b005b34801561047457600080fd5b506104b3600480360381019080803573ffffffffffffffffffffffffffffffffffffffff169060200190929190803590602001909291905050506109a2565b005b3480156104c157600080fd5b506104ca6109b1565b6040518082815260200191505060405180910390f35b3480156104ec57600080fd5b506104f56109bb565b6040518082815260200191505060405180910390f35b60035481565b60025481565b600660009054906101000a900473ffffffffffffffffffffffffffffffffffffffff1673ffffffffffffffffffffffffffffffffffffffff163373ffffffffffffffffffffffffffffffffffffffff1614151561057357600080fd5b8560009080519060200190610589929190610d07565b5084600190805190602001906105a0929190610d07565b508360028190555083600a8402026003819055508160048190555060035460058190555060035460076000600660009054906101000a900473ffffffffffffffffffffffffffffffffffffffff1673ffffffffffffffffffffffffffffffffffffffff1673ffffffffffffffffffffffffffffffffffffffff16815260200190815260200160002081905550505050505050565b60008054600181600116156101000203166002900480601f0160208091040260200160405190810160405280929190818152602001828054600181600116156101000203166002900480156106ca5780601f1061069f576101008083540402835291602001916106ca565b820191906000526020600020905b8154815290600101906020018083116106ad57829003601f168201915b505050505081565b600660009054906101000a900473ffffffffffffffffffffffffffffffffffffffff1681565b6000600760008373ffffffffffffffffffffffffffffffffffffffff1673ffffffffffffffffffffffffffffffffffffffff168152602001908152602001600020549050919050565b60045481565b60018054600181600116156101000203166002900480601f0160208091040260200160405190810160405280929190818152602001828054600181600116156101000203166002900480156107dd5780601f106107b2576101008083540402835291602001916107dd565b820191906000526020600020905b8154815290600101906020018083116107c057829003601f168201915b505050505081565b600660009054906101000a900473ffffffffffffffffffffffffffffffffffffffff1673ffffffffffffffffffffffffffffffffffffffff163373ffffffffffffffffffffffffffffffffffffffff1614151561084157600080fd5b600660009054906101000a900473ffffffffffffffffffffffffffffffffffffffff1673ffffffffffffffffffffffffffffffffffffffff166108fc829081150290604051600060405180830381858888f193505050501580156108a9573d6000803e3d6000fd5b5050565b600660009054906101000a900473ffffffffffffffffffffffffffffffffffffffff1673ffffffffffffffffffffffffffffffffffffffff163373ffffffffffffffffffffffffffffffffffffffff1614151561090957600080fd5b8060048190555050565b60006004543481151561092257fe5b0490506109303033836109c1565b3373ffffffffffffffffffffffffffffffffffffffff163073ffffffffffffffffffffffffffffffffffffffff167f9ed053bb818ff08b8353cd46f78db1f0799f31c9e4458fdb425c10eccd2efc4483600554604051808381526020018281526020019250505060405180910390a350565b6109ad3383836109c1565b5050565b6000600354905090565b60055481565b60008073ffffffffffffffffffffffffffffffffffffffff168373ffffffffffffffffffffffffffffffffffffffff16141515156109fe57600080fd5b81600760008673ffffffffffffffffffffffffffffffffffffffff1673ffffffffffffffffffffffffffffffffffffffff1681526020019081526020016000205410151515610a4c57600080fd5b600760008473ffffffffffffffffffffffffffffffffffffffff1673ffffffffffffffffffffffffffffffffffffffff1681526020019081526020016000205482600760008673ffffffffffffffffffffffffffffffffffffffff1673ffffffffffffffffffffffffffffffffffffffff1681526020019081526020016000205401111515610ada57600080fd5b600760008473ffffffffffffffffffffffffffffffffffffffff1673ffffffffffffffffffffffffffffffffffffffff16815260200190815260200160002054600760008673ffffffffffffffffffffffffffffffffffffffff1673ffffffffffffffffffffffffffffffffffffffff1681526020019081526020016000205401905081600760008673ffffffffffffffffffffffffffffffffffffffff1673ffffffffffffffffffffffffffffffffffffffff1681526020019081526020016000206000828254039250508190555081600760008573ffffffffffffffffffffffffffffffffffffffff1673ffffffffffffffffffffffffffffffffffffffff16815260200190815260200160002060008282540192505081905550816005600082825403925050819055508273ffffffffffffffffffffffffffffffffffffffff168473ffffffffffffffffffffffffffffffffffffffff167f9ed053bb818ff08b8353cd46f78db1f0799f31c9e4458fdb425c10eccd2efc4484600554604051808381526020018281526020019250505060405180910390a380600760008573ffffffffffffffffffffffffffffffffffffffff1673ffffffffffffffffffffffffffffffffffffffff16815260200190815260200160002054600760008773ffffffffffffffffffffffffffffffffffffffff1673ffffffffffffffffffffffffffffffffffffffff1681526020019081526020016000205401141515610d0157fe5b50505050565b828054600181600116156101000203166002900490600052602060002090601f016020900481019282601f10610d4857805160ff1916838001178555610d76565b82800160010185558215610d76579182015b82811115610d75578251825591602001919060010190610d5a565b5b509050610d839190610d87565b5090565b610da991905b80821115610da5576000816000905550600101610d8d565b5090565b905600a165627a7a7230582067232487c8ba5ddbc06e54535d2bf7cc921527378063b994e501773b47e7e4330029",
  "source": "pragma solidity ^0.4.4;\n\ncontract createERC20_v2 {\n    \n     // MODIFIER \n     modifier onlyOwner {\n         require (msg.sender == icoOwner);\n         _;\n     }\n   \t string public tokenName; // nombre de nuestra criptomoneda\n\t string public symbol;// le designamos un simbolo\n\t uint public decimals;  // le asignamos el numero de decimales - ether usa 18 decimales\n\t uint256 public totalSupply; // total supply of our token \n\n\t uint256 public buyPrice;\n\t //uint256 public sellPrice;\n\t \n\t uint256 public actualSupply;\n\t \n\t address public  icoOwner;\n\t \n\t // keep track of how mucha tokens everybody has\n\t mapping(address => uint256) balances; // the addres is the key of the dic balances\n\t //mapping (address => mapping (address => uint256)) public allowance;\n\t \n\t \n\t // EVENTOS\n\t //event CreateToken (string name, string symbol, uint decimals, uint256 totalSupply, uint256 princeInEther, address icoOwner);\n\t event Transfer(address indexed from, address indexed to, uint256 value, uint256 aSupply); // notificamos que se ha realizado una transaccion\n     //event Burn(address indexed from, uint256 value); // notificamos de la destruccion de tokens\n\t\n\t/*\n\t* the constructor function of our Token smart contract\n\t*/\n\t//function createERC20_v2() public {\n\tconstructor() public {\n\t    icoOwner = msg.sender;\n\t}\n\t\n\t/*\n\t* Function to set token parameters\n\t*/\n\t function setERC2Params (string tName, string  tSymbol, uint nDecimals, uint256  initialSup, uint256 p_buy, address owner) public onlyOwner {\n\t     \n\t     tokenName = tName;\n\t     symbol = tSymbol;\n\t     decimals = nDecimals;\n\t     // totalSupply = totalSup;// we create totalSup=100 tokens w/ nDecimals=2 decimals\n\t     totalSupply = initialSup * 10 * uint256(nDecimals); // \n\t     buyPrice = p_buy;\n\t    // sellPrice = p_sell;\n\t     actualSupply = totalSupply;\n\t     \n\t     //icoOwner = owner;\n\t     \n\t     balances[icoOwner] = totalSupply; // es lo mismo poner tokenOwner que msgSender por como está progrmado???\n\t     \n\t     //emit CreateToken(tName, tSymbol, nDecimals, initialSup, p_buy, owner);\n\t }\n\t \n\t /*\n\t * Getter function for the totalSupply variable\n\t */\n\t function getTotalSupply() public constant returns (uint){\n\t     return totalSupply;\n\t }\n\t \n\t /*\n\t * Gets the balance of the specified address\n\t */\n\t function balanceOf(address tokenOwner) public constant returns (uint balance){\n\t     return balances[tokenOwner];\n\t }\n\t \n\t /*\n\t * Internal transfer function, it can only be called by this contract\n\t */\n\t function _transfer(address _from, address _to, uint _value) internal {\n        \n        require(_to != address(0)); // Prevent transfer to 0x0 address.\n        require(balances[_from] >= _value);  // Check if the sender has enough\n        require(balances[_to] + _value > balances[_to]); // Check for overflows ?????\n        uint previousBalances = balances[_from] + balances[_to]; // Save this for an assertion in the future\n        \n        balances[_from] -= _value; // Subtract from the sender\n        balances[_to] += _value;// Add the same to the recipient\n        actualSupply -= _value;\n        \n        emit Transfer(_from, _to, _value, actualSupply); // emit event\n        \n        // Asserts are used to use static analysis to find bugs in your code. They should never fail\n        assert(balances[_from] + balances[_to] == previousBalances);\n    }\n    \n    /* \n    * Externalfunction for transfering\n    * Sen (_value) tokens to (_to) account from your account\n    *\n    * @param _to Address of recipient account\n    * @param _value Amount of tokens to send    *\n    */\n    function transfer( address _to, uint256 _value) public {\n        _transfer(msg.sender, _to, _value);\n    }\n    \n    \n    /*\n    * Funcion que actualiza el precio del token creado \n    * solo el creador de la ICO puede actualizar este valor \n    */\n    function setPrices (uint256 newBuyPrice) onlyOwner public {\n        // sel tamb iria aqui\n        buyPrice = newBuyPrice;\n    }\n    \n    /*\n    *  buy tokens from contract by sending ether \n    */\n    function buy() payable public {\n        uint amount = msg.value / buyPrice; // calculates the amoun\n        _transfer (this, msg.sender, amount);\n        \n        emit Transfer(this, msg.sender, amount, actualSupply); // execute an event reflecting the change\n    }\n    \n    /*\n    * Function to extract the ehters keep in the contract\n    * only the ICO owner can use it\n    * ¿ESTA BIIIEN?\n    */\n    function extractInvestment(uint amount) payable onlyOwner public {\n        // COMO ????? \n        icoOwner.transfer(amount); // ??? \n    }\n\t\n}",
  "sourcePath": "/home/sofiavidal/Escritorio/ICO_Plataform/TFG-ICO-Plataform/contracts/createERC20_v2.sol",
  "compiler": {
    "name": "solc",
    "version": "0.4.24+commit.e67f0147.Emscripten.clang"
  },
  "schemaVersion": "2.0.0",
  "updatedAt": "2018-06-16T07:40:37.313Z"
}