{
  "contractName": "IcoDDBB",
  "abi": [
    {
      "constant": true,
      "inputs": [
        {
          "name": "",
          "type": "uint256"
        }
      ],
      "name": "arrayIdICOs",
      "outputs": [
        {
          "name": "",
          "type": "uint256"
        }
      ],
      "payable": false,
      "stateMutability": "view",
      "type": "function"
    },
    {
      "constant": true,
      "inputs": [],
      "name": "owner",
      "outputs": [
        {
          "name": "",
          "type": "address"
        }
      ],
      "payable": false,
      "stateMutability": "view",
      "type": "function"
    },
    {
      "inputs": [],
      "payable": false,
      "stateMutability": "nonpayable",
      "type": "constructor"
    },
    {
      "anonymous": false,
      "inputs": [
        {
          "indexed": false,
          "name": "id",
          "type": "uint256"
        },
        {
          "indexed": false,
          "name": "name",
          "type": "string"
        },
        {
          "indexed": false,
          "name": "oppening",
          "type": "string"
        },
        {
          "indexed": false,
          "name": "closing",
          "type": "string"
        },
        {
          "indexed": false,
          "name": "icoOwner",
          "type": "address"
        }
      ],
      "name": "Register",
      "type": "event"
    },
    {
      "constant": false,
      "inputs": [
        {
          "name": "name",
          "type": "string"
        },
        {
          "name": "token",
          "type": "address"
        },
        {
          "name": "opppening",
          "type": "string"
        },
        {
          "name": "clossing",
          "type": "string"
        }
      ],
      "name": "register",
      "outputs": [],
      "payable": false,
      "stateMutability": "nonpayable",
      "type": "function"
    },
    {
      "constant": true,
      "inputs": [],
      "name": "numberOfIcos",
      "outputs": [
        {
          "name": "",
          "type": "uint256"
        }
      ],
      "payable": false,
      "stateMutability": "view",
      "type": "function"
    },
    {
      "constant": true,
      "inputs": [],
      "name": "getIdIcos",
      "outputs": [
        {
          "name": "",
          "type": "uint256[]"
        }
      ],
      "payable": false,
      "stateMutability": "view",
      "type": "function"
    },
    {
      "constant": true,
      "inputs": [
        {
          "name": "id",
          "type": "uint256"
        }
      ],
      "name": "getICOnameByID",
      "outputs": [
        {
          "name": "",
          "type": "string"
        }
      ],
      "payable": false,
      "stateMutability": "view",
      "type": "function"
    },
    {
      "constant": true,
      "inputs": [
        {
          "name": "id",
          "type": "uint256"
        }
      ],
      "name": "getTokenAddressByID",
      "outputs": [
        {
          "name": "",
          "type": "address"
        }
      ],
      "payable": false,
      "stateMutability": "view",
      "type": "function"
    },
    {
      "constant": true,
      "inputs": [
        {
          "name": "id",
          "type": "uint256"
        }
      ],
      "name": "getOpeningDateNameByID",
      "outputs": [
        {
          "name": "",
          "type": "string"
        }
      ],
      "payable": false,
      "stateMutability": "view",
      "type": "function"
    },
    {
      "constant": true,
      "inputs": [
        {
          "name": "id",
          "type": "uint256"
        }
      ],
      "name": "getClosingDateNameByID",
      "outputs": [
        {
          "name": "",
          "type": "string"
        }
      ],
      "payable": false,
      "stateMutability": "view",
      "type": "function"
    },
    {
      "constant": true,
      "inputs": [
        {
          "name": "id",
          "type": "uint256"
        }
      ],
      "name": "getOwnerAddeByID",
      "outputs": [
        {
          "name": "",
          "type": "address"
        }
      ],
      "payable": false,
      "stateMutability": "view",
      "type": "function"
    }
  ],
  "bytecode": "0x6080604052600060025534801561001557600080fd5b5033600360006101000a81548173ffffffffffffffffffffffffffffffffffffffff021916908373ffffffffffffffffffffffffffffffffffffffff160217905550610d31806100666000396000f3006080604052600436106100a4576000357c0100000000000000000000000000000000000000000000000000000000900463ffffffff1680634d397f45146100a957806358e08907146100ea57806382495eba146101575780638da5cb5b146101c3578063a9ecaad41461021a578063afa028581461032f578063bc0d3a58146103d5578063dd7de9061461047b578063df0dc1d3146104e8578063f7a8365414610513575b600080fd5b3480156100b557600080fd5b506100d4600480360381019080803590602001909291905050506105b9565b6040518082815260200191505060405180910390f35b3480156100f657600080fd5b50610115600480360381019080803590602001909291905050506105dc565b604051808273ffffffffffffffffffffffffffffffffffffffff1673ffffffffffffffffffffffffffffffffffffffff16815260200191505060405180910390f35b34801561016357600080fd5b5061016c61061b565b6040518080602001828103825283818151815260200191508051906020019060200280838360005b838110156101af578082015181840152602081019050610194565b505050509050019250505060405180910390f35b3480156101cf57600080fd5b506101d8610673565b604051808273ffffffffffffffffffffffffffffffffffffffff1673ffffffffffffffffffffffffffffffffffffffff16815260200191505060405180910390f35b34801561022657600080fd5b5061032d600480360381019080803590602001908201803590602001908080601f0160208091040260200160405190810160405280939291908181526020018383808284378201915050505050509192919290803573ffffffffffffffffffffffffffffffffffffffff169060200190929190803590602001908201803590602001908080601f0160208091040260200160405190810160405280939291908181526020018383808284378201915050505050509192919290803590602001908201803590602001908080601f0160208091040260200160405190810160405280939291908181526020018383808284378201915050505050509192919290505050610699565b005b34801561033b57600080fd5b5061035a600480360381019080803590602001909291905050506109ef565b6040518080602001828103825283818151815260200191508051906020019080838360005b8381101561039a57808201518184015260208101905061037f565b50505050905090810190601f1680156103c75780820380516001836020036101000a031916815260200191505b509250505060405180910390f35b3480156103e157600080fd5b5061040060048036038101908080359060200190929190505050610aa6565b6040518080602001828103825283818151815260200191508051906020019080838360005b83811015610440578082015181840152602081019050610425565b50505050905090810190601f16801561046d5780820380516001836020036101000a031916815260200191505b509250505060405180910390f35b34801561048757600080fd5b506104a660048036038101908080359060200190929190505050610b5d565b604051808273ffffffffffffffffffffffffffffffffffffffff1673ffffffffffffffffffffffffffffffffffffffff16815260200191505060405180910390f35b3480156104f457600080fd5b506104fd610b9c565b6040518082815260200191505060405180910390f35b34801561051f57600080fd5b5061053e60048036038101908080359060200190929190505050610ba9565b6040518080602001828103825283818151815260200191508051906020019080838360005b8381101561057e578082015181840152602081019050610563565b50505050905090810190601f1680156105ab5780820380516001836020036101000a031916815260200191505b509250505060405180910390f35b6001818154811015156105c857fe5b906000526020600020016000915090505481565b600080600083815260200190815260200160002060050160009054906101000a900473ffffffffffffffffffffffffffffffffffffffff169050919050565b6060600180548060200260200160405190810160405280929190818152602001828054801561066957602002820191906000526020600020905b815481526020019060010190808311610655575b5050505050905090565b600360009054906101000a900473ffffffffffffffffffffffffffffffffffffffff1681565b60c06040519081016040528060025481526020018581526020018473ffffffffffffffffffffffffffffffffffffffff1681526020018381526020018281526020013373ffffffffffffffffffffffffffffffffffffffff16815250600080600254815260200190815260200160002060008201518160000155602082015181600101908051906020019061072f929190610c60565b5060408201518160020160006101000a81548173ffffffffffffffffffffffffffffffffffffffff021916908373ffffffffffffffffffffffffffffffffffffffff1602179055506060820151816003019080519060200190610793929190610c60565b5060808201518160040190805190602001906107b0929190610c60565b5060a08201518160050160006101000a81548173ffffffffffffffffffffffffffffffffffffffff021916908373ffffffffffffffffffffffffffffffffffffffff160217905550905050600160025490806001815401808255809150509060018203906000526020600020016000909192909190915055507f8bfebf5e8e45f1fe7017418cf4efb6f7c66b687463e689c1392f1c1aefc258f960025485848433604051808681526020018060200180602001806020018573ffffffffffffffffffffffffffffffffffffffff1673ffffffffffffffffffffffffffffffffffffffff168152602001848103845288818151815260200191508051906020019080838360005b838110156108d15780820151818401526020810190506108b6565b50505050905090810190601f1680156108fe5780820380516001836020036101000a031916815260200191505b50848103835287818151815260200191508051906020019080838360005b8381101561093757808201518184015260208101905061091c565b50505050905090810190601f1680156109645780820380516001836020036101000a031916815260200191505b50848103825286818151815260200191508051906020019080838360005b8381101561099d578082015181840152602081019050610982565b50505050905090810190601f1680156109ca5780820380516001836020036101000a031916815260200191505b509850505050505050505060405180910390a160016002540160028190555050505050565b60606000808381526020019081526020016000206004018054600181600116156101000203166002900480601f016020809104026020016040519081016040528092919081815260200182805460018160011615610100020316600290048015610a9a5780601f10610a6f57610100808354040283529160200191610a9a565b820191906000526020600020905b815481529060010190602001808311610a7d57829003601f168201915b50505050509050919050565b60606000808381526020019081526020016000206001018054600181600116156101000203166002900480601f016020809104026020016040519081016040528092919081815260200182805460018160011615610100020316600290048015610b515780601f10610b2657610100808354040283529160200191610b51565b820191906000526020600020905b815481529060010190602001808311610b3457829003601f168201915b50505050509050919050565b600080600083815260200190815260200160002060020160009054906101000a900473ffffffffffffffffffffffffffffffffffffffff169050919050565b6000600180549050905090565b60606000808381526020019081526020016000206003018054600181600116156101000203166002900480601f016020809104026020016040519081016040528092919081815260200182805460018160011615610100020316600290048015610c545780601f10610c2957610100808354040283529160200191610c54565b820191906000526020600020905b815481529060010190602001808311610c3757829003601f168201915b50505050509050919050565b828054600181600116156101000203166002900490600052602060002090601f016020900481019282601f10610ca157805160ff1916838001178555610ccf565b82800160010185558215610ccf579182015b82811115610cce578251825591602001919060010190610cb3565b5b509050610cdc9190610ce0565b5090565b610d0291905b80821115610cfe576000816000905550600101610ce6565b5090565b905600a165627a7a723058201f1cf3c077a1027447c218814ec41e0fd8997201d9ec32a4a8605332dbcb67430029",
  "source": "pragma solidity ^0.4.4;\n\ncontract IcoDDBB   {\n    \n    struct ICO {\n        uint id;\n        string name;\n        address tokenContract;\n        string openingDate;\n        string closingDate;\n        //uint tokenPrice;\n        address owner; \n        //address ERC2contract; // guardo la dir del contrato que crea el token de la ico asociado\n    }\n    \n    //mapping (address => ICO) private icoListAdd;\n    //address[] public addrIcos;\n   \n    mapping (uint => ICO) private icoList; // Diccionario (id -> ICO)\n    uint[] public arrayIdICOs; // todos los id's\n    uint id_counter = 0;\n    \n    address public owner;\n    \n    // EVENTS\n    event Register(uint id, string name, string oppening, string closing, address icoOwner);\n    \n    /*\n    * Constructor del Smart Contract\n    */\n    //function IcoDDBB() public {\n    constructor() public {\n        owner = msg.sender;\n    }\n      \n    /*\n    * Funcion registart una nueva ICO en la plataforma\n    */\n    function register(string name, address token,  string opppening, string clossing) public {\n       \n       //icoList[id_counter] = ICO(id_counter, name, token, opppening, clossing, tokenPric, msg.sender);\n       icoList[id_counter] = ICO(id_counter, name, token, opppening, clossing, msg.sender);\n       arrayIdICOs.push(id_counter);\n       \n       emit Register(id_counter, name, opppening, clossing, msg.sender);// lanzamos evento \n       \n       id_counter = id_counter + 1; // actualizamos contador de ICOs\n    }\n    \n    //////////////////////////////////////////////////////////////////////////\n    //                                                                      //\n    //                      GETTER FUNCTIONS                                //\n    //                                                                      //\n    //////////////////////////////////////////////////////////////////////////\n    \n    \n    /*\n    * Devuelve el numero de ICOs creadas/registradas\n    */\n    function numberOfIcos() public constant returns (uint) {\n        return arrayIdICOs.length;\n    }\n    \n    /*\n    * Devuleve el array con todos los id's nde las ICOs\n    */\n    function getIdIcos ()  public constant returns (uint[]) {\n        return arrayIdICOs;\n    }\n    \n    /*\n    * Devuleve el nombre de la ICO dado su id\n    */\n    function getICOnameByID(uint id) public constant returns (string) {\n        return icoList[id].name;\n    }\n\n    /*\n    * Devuleve el precio del token de la ICO dado su id\n    */\n    /*function getTokenPriceByID(uint id) public constant returns (uint) {\n        return icoList[id].tokenPrice;\n    }*/\n    \n    /*\n    * Devuleve el nombre del token de la ICO dado su id\n    */\n    function getTokenAddressByID(uint id) public constant returns (address) {\n        return icoList[id].tokenContract;\n    }\n    \n    /*\n    * Devuleve la fecha de apertura de la ICO dado su id\n    */\n    function getOpeningDateNameByID(uint id) public constant returns (string) {\n        return icoList[id].openingDate;\n    }\n    \n    /*\n    * Devuleve la fecha de apertura de la ICO dado su id\n    */\n    function getClosingDateNameByID(uint id) public constant returns (string) {\n        return icoList[id].closingDate;\n    }\n    \n    /*\n    * Devuleve el creador  de la ICO dado su id\n    */\n    function getOwnerAddeByID(uint id) public constant returns (address) {\n        return icoList[id].owner;\n    }\n}",
  "sourcePath": "/home/sofiavidal/Escritorio/ICO_Plataform/TFG-ICO-Plataform/contracts/IcoDDBB.sol",
  "compiler": {
    "name": "solc",
    "version": "0.4.24+commit.e67f0147.Emscripten.clang"
  },
  "schemaVersion": "2.0.0",
  "updatedAt": "2018-06-12T17:27:25.555Z"
}