{
  "contractName": "IcoDDBB",
  "abi": [
    {
      "constant": true,
      "inputs": [
        {
          "name": "",
          "type": "uint256"
        }
      ],
      "name": "arrayIdICOs",
      "outputs": [
        {
          "name": "",
          "type": "uint256"
        }
      ],
      "payable": false,
      "stateMutability": "view",
      "type": "function"
    },
    {
      "constant": true,
      "inputs": [],
      "name": "owner",
      "outputs": [
        {
          "name": "",
          "type": "address"
        }
      ],
      "payable": false,
      "stateMutability": "view",
      "type": "function"
    },
    {
      "inputs": [],
      "payable": false,
      "stateMutability": "nonpayable",
      "type": "constructor"
    },
    {
      "anonymous": false,
      "inputs": [
        {
          "indexed": false,
          "name": "id",
          "type": "uint256"
        },
        {
          "indexed": false,
          "name": "name",
          "type": "string"
        },
        {
          "indexed": false,
          "name": "oppening",
          "type": "string"
        },
        {
          "indexed": false,
          "name": "closing",
          "type": "string"
        },
        {
          "indexed": false,
          "name": "icoOwner",
          "type": "address"
        }
      ],
      "name": "Register",
      "type": "event"
    },
    {
      "constant": false,
      "inputs": [
        {
          "name": "name",
          "type": "string"
        },
        {
          "name": "token",
          "type": "string"
        },
        {
          "name": "opppening",
          "type": "string"
        },
        {
          "name": "clossing",
          "type": "string"
        },
        {
          "name": "tokenPric",
          "type": "uint256"
        }
      ],
      "name": "register",
      "outputs": [],
      "payable": false,
      "stateMutability": "nonpayable",
      "type": "function"
    },
    {
      "constant": true,
      "inputs": [],
      "name": "numberOfIcos",
      "outputs": [
        {
          "name": "",
          "type": "uint256"
        }
      ],
      "payable": false,
      "stateMutability": "view",
      "type": "function"
    },
    {
      "constant": true,
      "inputs": [],
      "name": "getIdIcos",
      "outputs": [
        {
          "name": "",
          "type": "uint256[]"
        }
      ],
      "payable": false,
      "stateMutability": "view",
      "type": "function"
    },
    {
      "constant": true,
      "inputs": [
        {
          "name": "id",
          "type": "uint256"
        }
      ],
      "name": "getICOnameByID",
      "outputs": [
        {
          "name": "",
          "type": "string"
        }
      ],
      "payable": false,
      "stateMutability": "view",
      "type": "function"
    },
    {
      "constant": true,
      "inputs": [
        {
          "name": "id",
          "type": "uint256"
        }
      ],
      "name": "getTokenPriceByID",
      "outputs": [
        {
          "name": "",
          "type": "uint256"
        }
      ],
      "payable": false,
      "stateMutability": "view",
      "type": "function"
    },
    {
      "constant": true,
      "inputs": [
        {
          "name": "id",
          "type": "uint256"
        }
      ],
      "name": "getTokenNameByID",
      "outputs": [
        {
          "name": "",
          "type": "string"
        }
      ],
      "payable": false,
      "stateMutability": "view",
      "type": "function"
    },
    {
      "constant": true,
      "inputs": [
        {
          "name": "id",
          "type": "uint256"
        }
      ],
      "name": "getOpeningDateNameByID",
      "outputs": [
        {
          "name": "",
          "type": "string"
        }
      ],
      "payable": false,
      "stateMutability": "view",
      "type": "function"
    },
    {
      "constant": true,
      "inputs": [
        {
          "name": "id",
          "type": "uint256"
        }
      ],
      "name": "getClosingDateNameByID",
      "outputs": [
        {
          "name": "",
          "type": "string"
        }
      ],
      "payable": false,
      "stateMutability": "view",
      "type": "function"
    },
    {
      "constant": true,
      "inputs": [
        {
          "name": "id",
          "type": "uint256"
        }
      ],
      "name": "getOwnerAddeByID",
      "outputs": [
        {
          "name": "",
          "type": "address"
        }
      ],
      "payable": false,
      "stateMutability": "view",
      "type": "function"
    }
  ],
  "bytecode": "0x6080604052600060025534801561001557600080fd5b5033600360006101000a81548173ffffffffffffffffffffffffffffffffffffffff021916908373ffffffffffffffffffffffffffffffffffffffff160217905550610e4e806100666000396000f3006080604052600436106100af576000357c0100000000000000000000000000000000000000000000000000000000900463ffffffff1680634d397f45146100b457806358e08907146100f55780635d8273a31461016257806382495eba146101a35780638da5cb5b1461020f578063afa0285814610266578063bb3173761461030c578063bc0d3a58146103b2578063df0dc1d314610458578063e8d78aea14610483578063f7a83654146105c8575b600080fd5b3480156100c057600080fd5b506100df6004803603810190808035906020019092919050505061066e565b6040518082815260200191505060405180910390f35b34801561010157600080fd5b5061012060048036038101908080359060200190929190505050610691565b604051808273ffffffffffffffffffffffffffffffffffffffff1673ffffffffffffffffffffffffffffffffffffffff16815260200191505060405180910390f35b34801561016e57600080fd5b5061018d600480360381019080803590602001909291905050506106d0565b6040518082815260200191505060405180910390f35b3480156101af57600080fd5b506101b86106ef565b6040518080602001828103825283818151815260200191508051906020019060200280838360005b838110156101fb5780820151818401526020810190506101e0565b505050509050019250505060405180910390f35b34801561021b57600080fd5b50610224610747565b604051808273ffffffffffffffffffffffffffffffffffffffff1673ffffffffffffffffffffffffffffffffffffffff16815260200191505060405180910390f35b34801561027257600080fd5b506102916004803603810190808035906020019092919050505061076d565b6040518080602001828103825283818151815260200191508051906020019080838360005b838110156102d15780820151818401526020810190506102b6565b50505050905090810190601f1680156102fe5780820380516001836020036101000a031916815260200191505b509250505060405180910390f35b34801561031857600080fd5b5061033760048036038101908080359060200190929190505050610824565b6040518080602001828103825283818151815260200191508051906020019080838360005b8381101561037757808201518184015260208101905061035c565b50505050905090810190601f1680156103a45780820380516001836020036101000a031916815260200191505b509250505060405180910390f35b3480156103be57600080fd5b506103dd600480360381019080803590602001909291905050506108db565b6040518080602001828103825283818151815260200191508051906020019080838360005b8381101561041d578082015181840152602081019050610402565b50505050905090810190601f16801561044a5780820380516001836020036101000a031916815260200191505b509250505060405180910390f35b34801561046457600080fd5b5061046d610992565b6040518082815260200191505060405180910390f35b34801561048f57600080fd5b506105c6600480360381019080803590602001908201803590602001908080601f0160208091040260200160405190810160405280939291908181526020018383808284378201915050505050509192919290803590602001908201803590602001908080601f0160208091040260200160405190810160405280939291908181526020018383808284378201915050505050509192919290803590602001908201803590602001908080601f0160208091040260200160405190810160405280939291908181526020018383808284378201915050505050509192919290803590602001908201803590602001908080601f01602080910402602001604051908101604052809392919081815260200183838082843782019150505050505091929192908035906020019092919050505061099f565b005b3480156105d457600080fd5b506105f360048036038101908080359060200190929190505050610cc6565b6040518080602001828103825283818151815260200191508051906020019080838360005b83811015610633578082015181840152602081019050610618565b50505050905090810190601f1680156106605780820380516001836020036101000a031916815260200191505b509250505060405180910390f35b60018181548110151561067d57fe5b906000526020600020016000915090505481565b600080600083815260200190815260200160002060060160009054906101000a900473ffffffffffffffffffffffffffffffffffffffff169050919050565b6000806000838152602001908152602001600020600501549050919050565b6060600180548060200260200160405190810160405280929190818152602001828054801561073d57602002820191906000526020600020905b815481526020019060010190808311610729575b5050505050905090565b600360009054906101000a900473ffffffffffffffffffffffffffffffffffffffff1681565b60606000808381526020019081526020016000206004018054600181600116156101000203166002900480601f0160208091040260200160405190810160405280929190818152602001828054600181600116156101000203166002900480156108185780601f106107ed57610100808354040283529160200191610818565b820191906000526020600020905b8154815290600101906020018083116107fb57829003601f168201915b50505050509050919050565b60606000808381526020019081526020016000206002018054600181600116156101000203166002900480601f0160208091040260200160405190810160405280929190818152602001828054600181600116156101000203166002900480156108cf5780601f106108a4576101008083540402835291602001916108cf565b820191906000526020600020905b8154815290600101906020018083116108b257829003601f168201915b50505050509050919050565b60606000808381526020019081526020016000206001018054600181600116156101000203166002900480601f0160208091040260200160405190810160405280929190818152602001828054600181600116156101000203166002900480156109865780601f1061095b57610100808354040283529160200191610986565b820191906000526020600020905b81548152906001019060200180831161096957829003601f168201915b50505050509050919050565b6000600180549050905090565b60e06040519081016040528060025481526020018681526020018581526020018481526020018381526020018281526020013373ffffffffffffffffffffffffffffffffffffffff168152506000806002548152602001908152602001600020600082015181600001556020820151816001019080519060200190610a25929190610d7d565b506040820151816002019080519060200190610a42929190610d7d565b506060820151816003019080519060200190610a5f929190610d7d565b506080820151816004019080519060200190610a7c929190610d7d565b5060a0820151816005015560c08201518160060160006101000a81548173ffffffffffffffffffffffffffffffffffffffff021916908373ffffffffffffffffffffffffffffffffffffffff160217905550905050600160025490806001815401808255809150509060018203906000526020600020016000909192909190915055507f8bfebf5e8e45f1fe7017418cf4efb6f7c66b687463e689c1392f1c1aefc258f960025486858533604051808681526020018060200180602001806020018573ffffffffffffffffffffffffffffffffffffffff1673ffffffffffffffffffffffffffffffffffffffff168152602001848103845288818151815260200191508051906020019080838360005b83811015610ba7578082015181840152602081019050610b8c565b50505050905090810190601f168015610bd45780820380516001836020036101000a031916815260200191505b50848103835287818151815260200191508051906020019080838360005b83811015610c0d578082015181840152602081019050610bf2565b50505050905090810190601f168015610c3a5780820380516001836020036101000a031916815260200191505b50848103825286818151815260200191508051906020019080838360005b83811015610c73578082015181840152602081019050610c58565b50505050905090810190601f168015610ca05780820380516001836020036101000a031916815260200191505b509850505050505050505060405180910390a16001600254016002819055505050505050565b60606000808381526020019081526020016000206003018054600181600116156101000203166002900480601f016020809104026020016040519081016040528092919081815260200182805460018160011615610100020316600290048015610d715780601f10610d4657610100808354040283529160200191610d71565b820191906000526020600020905b815481529060010190602001808311610d5457829003601f168201915b50505050509050919050565b828054600181600116156101000203166002900490600052602060002090601f016020900481019282601f10610dbe57805160ff1916838001178555610dec565b82800160010185558215610dec579182015b82811115610deb578251825591602001919060010190610dd0565b5b509050610df99190610dfd565b5090565b610e1f91905b80821115610e1b576000816000905550600101610e03565b5090565b905600a165627a7a7230582037f3fc41f8bef3986d3273b3dfa5c1ef8a6372ed3579156210074c6c71351dd90029",
  "source": "pragma solidity ^0.4.4;\n\ncontract IcoDDBB   {\n    \n    struct ICO {\n        uint id;\n        string name;\n        string token;\n        string openingDate;\n        string closingDate;\n        uint tokenPrice;\n        address owner; \n        //address ERC2contract; // guardo la dir del contrato que crea el token de la ico asociado\n    }\n    \n    //mapping (address => ICO) private icoListAdd;\n    //address[] public addrIcos;\n   \n    mapping (uint => ICO) private icoList; // Diccionario (id -> ICO)\n    uint[] public arrayIdICOs; // todos los id's\n    uint id_counter = 0;\n    \n    address public owner;\n    \n    // EVENTS\n    event Register(uint id, string name, string oppening, string closing, address icoOwner);\n    \n    /*\n    * Constructor del Smart Contract\n    */\n    function IcoDDBB() public {\n        owner = msg.sender;\n    }    \n      \n    /*\n    * Funcion registart una nueva ICO en la plataforma\n    */\n    function register(string name, string token,  string opppening, string clossing, uint tokenPric) public {\n       \n       icoList[id_counter] = ICO(id_counter, name, token, opppening, clossing, tokenPric, msg.sender);\n       arrayIdICOs.push(id_counter);\n       \n       Register(id_counter, name, opppening, clossing, msg.sender);// lanzamos evento \n       \n       id_counter = id_counter + 1; // actualizamos contador de ICOs\n    }\n    \n    //////////////////////////////////////////////////////////////////////////\n    //                                                                      //\n    //                      GETTER FUNCTIONS                                //\n    //                                                                      //\n    //////////////////////////////////////////////////////////////////////////\n    \n    \n    /*\n    * Devuelve el numero de ICOs creadas/registradas\n    */\n    function numberOfIcos() public constant returns (uint) {\n        return arrayIdICOs.length;\n    }\n    \n    /*\n    * Devuleve el array con todos los id's nde las ICOs\n    */\n    function getIdIcos ()  public constant returns (uint[]) {\n        return arrayIdICOs;\n    }\n    \n    /*\n    * Devuleve el nombre de la ICO dado su id\n    */\n    function getICOnameByID(uint id) public constant returns (string) {\n        return icoList[id].name;\n    }\n\n    /*\n    * Devuleve el precio del token de la ICO dado su id\n    */\n    function getTokenPriceByID(uint id) public constant returns (uint) {\n        return icoList[id].tokenPrice;\n    }\n    \n    /*\n    * Devuleve el nombre del token de la ICO dado su id\n    */\n    function getTokenNameByID(uint id) public constant returns (string) {\n        return icoList[id].token;\n    }\n    \n    /*\n    * Devuleve la fecha de apertura de la ICO dado su id\n    */\n    function getOpeningDateNameByID(uint id) public constant returns (string) {\n        return icoList[id].openingDate;\n    }\n    \n    /*\n    * Devuleve la fecha de apertura de la ICO dado su id\n    */\n    function getClosingDateNameByID(uint id) public constant returns (string) {\n        return icoList[id].closingDate;\n    }\n    \n    /*\n    * Devuleve el creador  de la ICO dado su id\n    */\n    function getOwnerAddeByID(uint id) public constant returns (address) {\n        return icoList[id].owner;\n    }\n}",
  "sourcePath": "/home/sofiavidal/Escritorio/ICO_Plataform/TFG-ICO-Plataform/contracts/IcoDDBB.sol",
  "compiler": {
    "name": "solc",
    "version": "0.4.24+commit.e67f0147.Emscripten.clang"
  },
  "schemaVersion": "2.0.0",
  "updatedAt": "2018-06-12T14:32:59.315Z"
}